:100000000C942A000C942A010C943C000C943C00A3
:100010000C943C000C943C000C943C000C943C0070
:100020000C943C000C943C000C943C000C943C0060
:100030000C943C000C943C000C943C000C943C0050
:100040000C943C000C943C000C943C000C943C0040
:100050000C943C0011241FBECFE5D8E0DEBFCDBF1D
:1000600020E0A0E6B0E001C01D92A936B207E1F79A
:100070000E9499010C9412060C940000CF93DF9318
:1000800000D0CDB7DEB741E060E081E40E94A0017E
:1000900041E061E081E40E94A00141E062E081E48E
:1000A0000E94A00141E060E082E40E94A00141E0E2
:1000B00061E082E40E94A00141E062E082E40E94EB
:1000C000A00140E060E081E40E941A0240E061E0AB
:1000D00081E40E941A0240E062E081E40E941A0278
:1000E00040E060E082E40E941A0240E061E082E4C5
:1000F0000E941A0240E062E082E40E941A0261E07B
:1001000080E00E94CB020E942F03198285E08A833F
:10011000CE0101960E9433030F900F90DF91CF9193
:10012000089540E060E081E40E941A0240E061E04E
:1001300081E40E941A0240E062E081E40E941A0217
:10014000089541E060E081E40E941A0281E080931A
:10015000620060E47BE48CE490E00E94A5031092CE
:10016000620040E060E081E40E941A020895CF93AB
:10017000DF9340E062E081E40E941A02C0E0D0E038
:1001800010C081E08093610061E081E40E949402EC
:1001900060E472E48FE090E00E94A5031092610099
:1001A0002196CA30D1056CF3DF91CF91089541E0DB
:1001B00062E081E40E941A0281E08093600060E4C2
:1001C0007BE48CE490E00E94A5031092600040E084
:1001D00062E081E40E941A0208950E94A1000E9438
:1001E000B7000E94D7000E94B70008950E947604CD
:1001F00041E060E082E40E941A0260E47BE48CE467
:1002000090E00E94A50340E060E082E40E941A02B0
:100210000E94760440E062E081E40E941A020895A0
:10022000CF93DF93C0E0D0E00FC061E081E40E9493
:10023000940261E082E40E94940260E472E48FE040
:1002400090E00E94A5032196CA30D10574F3DF9196
:10025000CF9108951F920F920FB60F9211242F93F2
:100260003F934F935F936F937F938F939F93AF933E
:10027000BF93EF93FF9381E08093630080916200CE
:10028000813021F080916100813099F58091630087
:10029000813079F50E9476040E9491000E9410013D
:1002A00041E062E081E40E941A0241E060E082E401
:1002B0000E941A0260E47BE48CE490E00E94A503B3
:1002C00040E062E081E40E941A020E94100140E0D6
:1002D00060E082E40E941A0241E060E081E40E9452
:1002E0001A0241E062E082E40E941A021092630066
:1002F0000CC080916000813041F4809163008130B6
:1003000021F40E94F60010926300FF91EF91BF91DB
:10031000AF919F918F917F916F915F914F913F919D
:100320002F910F900FBE0F901F9018950E94ED0017
:10033000FDCF0E943E000E94960180E090E008956B
:10034000823431F118F4813439F008958334E1F1C5
:10035000843409F454C0089541110CC02AB381E0DB
:1003600090E002C0880F991F6A95E2F7809582237A
:100370008ABB0895413009F05CC02AB381E090E067
:1003800002C0880F991F6A95E2F7822B8ABB0895F5
:1003900041110CC027B381E090E002C0880F991F83
:1003A0006A95E2F78095822387BB0895413009F072
:1003B00040C027B381E090E002C0880F991F6A9582
:1003C000E2F7822B87BB089541110CC024B381E072
:1003D00090E002C0880F991F6A95E2F7809582230A
:1003E00084BB0895413029F524B381E090E002C038
:1003F000880F991F6A95E2F7822B84BB08954111FB
:100400000CC021B381E090E002C0880F991F6A956B
:10041000E2F78095822381BB0895413051F421B3E6
:1004200081E090E002C0880F991F6A95E2F7822B65
:1004300081BB0895823431F118F4813439F0089584
:100440008334E1F1843409F454C0089541110CC09F
:100450002BB381E090E002C0880F991F6A95E2F704
:10046000809582238BBB0895413009F05CC02BB38B
:1004700081E090E002C0880F991F6A95E2F7822B15
:100480008BBB089541110CC028B381E090E002C0FD
:10049000880F991F6A95E2F78095822388BB08959B
:1004A000413009F040C028B381E090E002C0880FDD
:1004B000991F6A95E2F7822B88BB089541110CC001
:1004C00025B381E090E002C0880F991F6A95E2F79A
:1004D0008095822385BB0895413029F525B381E0BD
:1004E00090E002C0880F991F6A95E2F7822B85BBC6
:1004F000089541110CC022B381E090E002C0880F42
:10050000991F6A95E2F78095822382BB0895413056
:1005100051F422B381E090E002C0880F991F6A95E0
:10052000E2F7822B82BB08958234A1F018F4813463
:1005300031F008958334C9F0843411F108952BB358
:1005400081E090E002C0880F991F6A95E2F7822748
:100550008BBB089528B381E090E002C0880F991FFB
:100560006A95E2F7822788BB089525B381E090E081
:1005700002C0880F991F6A95E2F7822785BB08950C
:1005800022B381E090E002C0880F991F6A95E2F7DC
:10059000822782BB0895813061F120F0823009F416
:1005A0004FC008958BB780648BBF611107C085B7BA
:1005B000816085BF85B7826085BF0895613039F459
:1005C00085B78E7F85BF85B7826085BF089562300D
:1005D00039F485B7816085BF85B78D7F85BF089564
:1005E0006330E1F585B78E7F85BF85B78D7F85BF89
:1005F00008958BB780688BBF611107C085B7846091
:1006000085BF85B7886085BF0895613039F485B7A7
:100610008B7F85BF85B7886085BF0895623039F4C8
:1006200085B7846085BF85B7877F85BF08956330B0
:10063000A9F485B78B7F85BF85B7877F85BF089570
:100640008BB780628BBF611104C084B7806484BFA4
:100650000895613019F484B78F7B84BF08958FB7F4
:1006600080688FBF0895FC018081833019F083B7C3
:10067000806883BF83B79081292F217030E0A90162
:100680000024569547950794569547950794542FFF
:10069000402D9270292F30E0220F331F220F331F7D
:1006A000220F331F242B282B23BF93B78181892B43
:1006B00083BF8181813069F481E090E0A0E0B0E007
:1006C0008093650090936600A0936700B0936800E4
:1006D0000895823069F488E090E0A0E0B0E0809373
:1006E000650090936600A0936700B093680008953A
:1006F000833069F480E490E0A0E0B0E0809365008E
:1007000090936600A0936700B093680008958430CA
:1007100069F480E091E0A0E0B0E080936500909300
:100720006600A0936700B09368000895853061F477
:1007300080E094E0A0E0B0E08093650090936600D4
:10074000A0936700B093680008952F923F924F9254
:100750005F926F927F928F929F92AF92BF92CF9251
:10076000DF92EF92FF920F931F93CF93DF93CDB75A
:10077000DEB72A970FB6F894DEBF0FBECDBF6B0170
:100780007C011092640020916500309166004091D8
:1007900067005091680060E472E48FE090E00E948E
:1007A000670520E432E44FE050E00E94770519012C
:1007B0002A01542F432F322F2227C216D306E406D4
:1007C000F50668F5DA01C9018C199D09AE09BF0962
:1007D0008C019D0140E050E0BA0189831A832B838C
:1007E0003C834D835E836F837887A22CB32CC42C0B
:1007F000D52CE12CF12C00E010E029813A814B81CD
:100800005C8160E070E080E090E00E94A60522BF7D
:1008100008B600FEFDCF88B7816088BF4EC02C159A
:100820003D054E055F0508F048C0C701B6010E94AE
:100830007705CA01B9010E94C0040E947A040E948F
:1008400091047A876987A701960160E070E0CB0187
:10085000C9823A834B835C836D837E838F839887C1
:10086000A22CB32CC42CD52CE12CF12C00E010E0F0
:1008700060E070E080E090E00E94A605E985FA85DE
:100880001F01AE2EB32CC12CD12C0E94A6052195A0
:1008900022BF20E030E00CC008B600FEFDCF88B7D4
:1008A000816088BF2F5F3F4F80916400813029F0C5
:1008B00009851A852017310778F32A960FB6F89420
:1008C000DEBF0FBECDBFDF91CF911F910F91FF9083
:1008D000EF90DF90CF90BF90AF909F908F907F90E0
:1008E0006F905F904F903F902F90089581E080939C
:1008F000640008950E94480590F09F3748F49111D4
:1009000016F40C94610560E070E080E89FE30895C0
:1009100026F01B16611D711D811D0C94FD040C94A5
:1009200018050E942E0588F09F5798F0B92F992737
:10093000B751B0F0E1F0660F771F881F991F1AF0CA
:10094000BA95C9F714C0B13091F00E946005B1E0CA
:1009500008950C946005672F782F8827B85F39F0C9
:10096000B93FCCF3869577956795B395D9F73EF463
:1009700090958095709561957F4F8F4F9F4F08950B
:10098000E89409C097FB3EF4909580957095619529
:100990007F4F8F4F9F4F9923A9F0F92F96E9BB27DF
:1009A0009395F695879577956795B795F111F8CF5B
:1009B000FAF4BB0F11F460FF1BC06F5F7F4F8F4FC6
:1009C0009F4F16C0882311F096E911C0772321F0BC
:1009D0009EE8872F762F05C0662371F096E8862F54
:1009E00070E060E02AF09A95660F771F881FDAF7AB
:1009F000880F9695879597F90895882371F4772342
:100A000021F09850872B762F07C0662311F4992781
:100A10000DC09051862B70E060E02AF09A95660F29
:100A2000771F881FDAF7880F9695879597F90895AD
:100A30009F3F31F0915020F4879577956795B79552
:100A4000880F911D9695879597F9089557FD9058B1
:100A5000440F551F59F05F3F71F04795880F97FB82
:100A6000991F61F09F3F79F087950895121613063C
:100A70001406551FF2CF4695F1DF08C0161617066B
:100A80001806991FF1CF86957105610508940895A0
:100A90000E942E05A0F0BEE7B91788F4BB279F3847
:100AA00060F41616B11D672F782F8827985FF7CF4F
:100AB000869577956795B11D93959639C8F30895F6
:100AC000E894BB2766277727CB0197F90895DB01C8
:100AD0008F939F930E949905BF91AF91A29F800D24
:100AE000911DA39F900DB29F900D11240895A1E236
:100AF0001A2EAA1BBB1BFD010DC0AA1FBB1FEE1F98
:100B0000FF1FA217B307E407F50720F0A21BB30BE2
:100B1000E40BF50B661F771F881F991F1A9469F75E
:100B200060957095809590959B01AC01BD01CF01BA
:100B300008950E940306A59F900DB49F900DA49F59
:100B4000800D911D11240895689401C0E8948F923E
:100B50009F92CF93DF930E94B205DF91CF919F9038
:100B60008F90089588249924F401E401B0E49F93C0
:100B7000AA279A158B049C04ED05FE05CF05D00726
:100B8000A10798F4AD2FDC2FCF2FFE2FE92D982C45
:100B9000892E982F872F762F652F542F432F322F92
:100BA0002227B85031F7BF9127C01B2EBF91BB271A
:100BB000220F331F441F551F661F771F881F991F61
:100BC000881C991CEE1FFF1FCC1FDD1FAA1FBB1F17
:100BD0008A149B04EC05FD05CE05DF05A007B107CF
:100BE00048F08A189B08EC09FD09CE09DF09A00B23
:100BF000B10B21601A94E1F62EF49401AF01BE010D
:100C0000CD01000C0895A29FB001B39FC001A39F26
:100C1000700D811D1124911DB29F700D811D112435
:080C2000911D0895F894FFCF27
:00000001FF
